:100000000C9446000C9465000C9465000C946500FB
:100010000C9465000C9465000C9465000C946500CC
:100020000C9465000C9465000C9465000C946500BC
:100030000C9465000C9465000C9465000C946500AC
:100040000C9465000C9465000C9465000C9465009C
:100050000C9465000C9465000C9465000C9465008C
:100060000C9465000C9465000C9465000C9465007C
:100070000C9465000C9465000C9465000C9465006C
:100080000C9465000C9465000C94650011241FBE4F
:10009000CFEFD0E4DEBFCDBF11E0A0E0B1E0E4E0FF
:1000A000F8E000E00BBF02C007900D92A631B10747
:1000B000D9F721E0A6E1B1E001C01D92A634B20754
:1000C000E1F70E94BD020C9400040C940000CF9351
:1000D000DF9300D01F92CDB7DEB789837B836A831D
:1000E00089818A3031F48A819B81BC018DE00E9434
:1000F000670080EC90E0FC018081882F90E08072A6
:100100009927892BB1F386EC90E02981FC012083AB
:1001100080E090E00F900F900F90DF91CF910895C5
:10012000CF93DF9300D000D0CDB7DEB769837A8359
:100130008B839C8389819A81AB81BC8180930E01E2
:1001400090930F01A0931001B093110180910E01C3
:1001500090910F01A0911001B091110180931601AF
:1001600090931701A0931801B093190100000F900C
:100170000F900F900F90DF91CF910895CF93DF9361
:10018000CDB7DEB781E890E02BE0FC01208388E862
:1001900090E02DE730E0FC01318320838FE690E092
:1001A00022E0FC01208384E890E0FC0111821082AF
:1001B00080910E0190910F01A0911001B091110159
:1001C0008093160190931701A0931801B093190121
:1001D0008FE590E02FE530E0F90120812068FC01F7
:1001E00020830000DF91CF910895CF93DF93CDB7A7
:1001F000DEB781E890E0FC0110820000DF91CF9132
:100200000895CF93DF9300D0CDB7DEB79A8389836B
:1002100089819A818130910589F0823091051CF4A1
:10022000892B39F01AC08230910569F0039781F06B
:1002300014C081E090E09A83898311C082E090E04D
:100240009A8389830CC083E090E09A83898307C0F6
:1002500081E090E09A83898302C01A8219828981A1
:100260009A818130910579F0823091051CF4892BB7
:1002700039F015C08230910551F0039761F00FC03D
:1002800010921A010CC081E080931A0108C082E02C
:1002900080931A0104C084E080931A0100008981D0
:1002A0009A810F900F90DF91CF910895CF93DF93B4
:1002B00000D0CDB7DEB79A83898389819A81009770
:1002C00019F0019731F00AC081E090E09A838983A8
:1002D00008C081E090E09A83898303C01A82198262
:1002E000000089819A81009719F0019721F00CC0D4
:1002F00010921B0109C090911B0181E0992309F024
:1003000080E080931B01000089819A810F900F90FB
:10031000DF91CF910895CF93DF9300D0CDB7DEB7B3
:100320009A83898389819A81009719F0019731F026
:100330000AC081E090E09A83898308C081E090E060
:100340009A83898303C01A821982000089819A8165
:10035000019709F013C085E290E020911B01222F44
:1003600030E0220F331F220F331F220F331F322F93
:1003700020911A01232BFC012083000089819A819E
:100380000F900F90DF91CF9108950F931F93CF930C
:10039000DF931F92CDB7DEB71982A6C08981282FBF
:1003A00030E0C901880F991F820F931F880F991F92
:1003B000880F991F8E5D9E4FFC0120813181428103
:1003C00053818981682F70E0CB01880F991F860FB8
:1003D000971F880F991F880F991F825E9E4FFC01FF
:1003E00080819181A281B381281739074A075B0771
:1003F00008F449C08981082F10E08981282F30E056
:10040000C901880F991F820F931F880F991F880FAA
:10041000991F8A5D9E4FFC01408151818981282F5F
:1004200030E0C901880F991F820F931F880F991F11
:10043000880F991F845E9E4FFC0180819181FA0193
:1004400009959C01C801880F991F800F911F880F83
:10045000991F880F991F845E9E4FFC013183208372
:100460008981282F30E0C901880F991F820F931FBF
:10047000880F991F880F991F8E5D9E4FFC01108277
:100480001182128213828981682F70E08981282F5E
:1004900030E0C901880F991F820F931F880F991FA1
:1004A000880F991F8E5D9E4FFC0180819181A281F2
:1004B000B38128EE33E040E050E0280F391F4A1F97
:1004C0005B1FCB01880F991F860F971F880F991FFD
:1004D000880F991F8E5D9E4FFC01208331834283DC
:1004E000538389818F5F89838981833008F456CF54
:1004F00000000F90DF91CF911F910F910895CF933E
:10050000DF9300D0CDB7DEB79A838983809116013F
:1005100090911701A0911801B09119010197A109BB
:10052000B1098093160190931701A0931801B0931D
:1005300019018091160190911701A0911801B091B5
:100540001901892B8A2B8B2B91F40E94C501809174
:100550000E0190910F01A0911001B09111018093B3
:10056000160190931701A0931801B0931901000090
:100570000F900F90DF91CF910895CF93DF931F924B
:10058000CDB7DEB784E290E02FEFFC01208385E257
:1005900090E0FC01108219828981282F30E0C90186
:1005A000880F991F820F931F880F991F880F991F1B
:1005B000845E9E4FFC01118210828981682F70E059
:1005C00028EE33E040E050E0CB01880F991F860F02
:1005D000971F880F991F880F991F825E9E4FFC01FD
:1005E00020833183428353838981682F70E089811E
:1005F000282F30E0C901880F991F820F931F880FA1
:10060000991F880F991F825E9E4FFC0120813181C6
:1006100042815381CB01880F991F860F971F880F46
:10062000991F880F991F8E5D9E4FFC012083318397
:10063000428353838981282F30E0C901880F991F95
:10064000820F931F880F991F880F991F8A5D9E4FF5
:1006500021E031E0FC013183208389818F5F898330
:100660008981282F30E0C901880F991F820F931FBD
:10067000880F991F880F991F845E9E4FFC0111827D
:1006800010828981682F70E028EE33E040E050E06E
:10069000CB01880F991F860F971F880F991F880F0E
:1006A000991F825E9E4FFC012083318342835383D6
:1006B0008981682F70E08981282F30E0C901880F77
:1006C000991F820F931F880F991F880F991F825EB1
:1006D0009E4FFC012081318142815381CB01880FE3
:1006E000991F860F971F880F991F880F991F8E5D7E
:1006F0009E4FFC0120833183428353838981282FBD
:1007000030E0C901880F991F820F931F880F991F2E
:10071000880F991F8A5D9E4F26E531E0FC013183E9
:10072000208389818F5F89838981282F30E0C901E7
:10073000880F991F820F931F880F991F880F991F89
:10074000845E9E4FFC01118210828981682F70E0C7
:1007500028EE33E040E050E0CB01880F991F860F70
:10076000971F880F991F880F991F825E9E4FFC016B
:1007700020833183428353838981682F70E089818C
:10078000282F30E0C901880F991F820F931F880F0F
:10079000991F880F991F825E9E4FFC012081318135
:1007A00042815381CB01880F991F860F971F880FB5
:1007B000991F880F991F8E5D9E4FFC012083318306
:1007C000428353838981282F30E0C901880F991F04
:1007D000820F931F880F991F880F991F8A5D9E4F64
:1007E0002BE831E0FC013183208388EE93E0A0E028
:1007F000B0E0BC01CD010E9490000E94BE00FFCF7E
:04080000F894FFCF9A
:10080400000000020000000067000000000001007A
:060814000000E8030000F3
:00000001FF
