:100000000C9446000C9465000C9465000C946500FB
:100010000C9465000C9465000C9465000C946500CC
:100020000C9465000C9465000C9465000C946500BC
:100030000C9465000C94BA030C9465000C94650054
:100040000C9465000C9465000C9465000C9465009C
:100050000C9465000C9465000C9465000C9465008C
:100060000C9465000C9465000C9465000C9465007C
:100070000C9465000C9465000C9465000C9465006C
:100080000C9465000C9465000C94650011241FBE4F
:10009000CFEFD0E4DEBFCDBF11E0A0E0B1E0E6E7F6
:1000A000FCE000E00BBF02C007900D92AC32B1073C
:1000B000D9F721E0ACE2B1E001C01D92A937B20747
:1000C000E1F70E941C040C9439060C940000CF93B5
:1000D000DF9300D01F92CDB7DEB789837B836A831D
:1000E00089818A3031F48A819B81BC018DE00E9434
:1000F000670080EC90E0FC018081882F90E08072A6
:100100009927892BB1F386EC90E02981FC012083AB
:1001100080E090E00F900F900F90DF91CF910895C5
:10012000CF93DF9300D000D0CDB7DEB769837A8359
:100130008B839C8389819A81AB81BC8180930E01E2
:1001400090930F01A0931001B093110180910E01C3
:1001500090910F01A0911001B091110180932D0198
:1001600090932E01A0932F01B093300100000F90C7
:100170000F900F900F90DF91CF910895CF93DF9361
:10018000CDB7DEB781E890E02BE0FC01208388E862
:1001900090E02DE730E0FC01318320838FE690E092
:1001A00022E0FC01208384E890E0FC0111821082AF
:1001B00080910E0190910F01A0911001B091110159
:1001C00080932D0190932E01A0932F01B0933001C5
:1001D0008FE590E02FE530E0F90120812068FC01F7
:1001E00020830000DF91CF910895CF93DF93CDB7A7
:1001F000DEB781E890E0FC0110820000DF91CF9132
:100200000895CF93DF9300D0CDB7DEB79A8389836B
:1002100089819A818130910589F0823091051CF4A1
:10022000892B39F01AC08230910569F0039781F06B
:1002300014C081E090E09A83898311C082E090E04D
:100240009A8389830CC083E090E09A83898307C0F6
:1002500081E090E09A83898302C01A8219828981A1
:100260009A818130910579F0823091051CF4892BB7
:1002700039F015C08230910551F0039761F00FC03D
:10028000109231010CC081E08093310108C082E0FE
:100290008093310104C084E08093310100008981A2
:1002A0009A810F900F90DF91CF910895CF93DF93B4
:1002B00000D0CDB7DEB79A83898389819A81009770
:1002C00019F0019731F00AC081E090E09A838983A8
:1002D00008C081E090E09A83898303C01A82198262
:1002E000000089819A81009719F0019721F00CC0D4
:1002F0001092320109C09091320181E0992309F0F6
:1003000080E080933201000089819A810F900F90E4
:10031000DF91CF910895CF93DF9300D0CDB7DEB7B3
:100320009A83898389819A8181309105C1F08230D5
:10033000910509F444C0892B09F071C080E290E076
:10034000FC018081882F90E08470992721E0892B1F
:1003500009F020E0822F90E09A83898363C080E2D5
:1003600090E0FC018081882F90E084709927892B90
:1003700059F49091340180911201891728F081E09D
:1003800090E09A8389831AC080E290E0FC0180812A
:10039000882F90E084709927892B69F4909134011B
:1003A00080911201891738F482E090E09A83898362
:1003B0001092340103C01A82198234C033C080E223
:1003C00090E0FC018081882F90E084709927892B30
:1003D00059F49091340180911201891728F082E03C
:1003E00090E09A8389831AC080E290E0FC018081CA
:1003F000882F90E084709927892B69F490913401BB
:1004000080911201891738F481E090E09A83898302
:100410001092340103C01A82198204C003C01A82E8
:100420001982000089819A818130910559F08230CA
:10043000910589F0892B09F016C0109233011092B2
:10044000340111C081E080933301809134018F5FCA
:100450008093340108C010923301809134018F5F82
:1004600080933401000089819A810F900F90DF9171
:10047000CF910895CF93DF9300D0CDB7DEB79A83A5
:10048000898389819A818130910589F18230910532
:100490001CF4892B39F049C08230910569F103972A
:1004A00081F143C080E290E0FC018081882F90E0E0
:1004B0008095909583709927019729F481E090E0C9
:1004C0009A83898332C080E290E0FC018081882F8A
:1004D00090E08095909583709927029729F482E0A7
:1004E00090E09A83898321C01A8219821EC083E01A
:1004F00090E09A83898319C083E090E09A8389838E
:1005000014C080E290E0FC018081882F90E080950B
:10051000909583709927892B19F41A82198204C047
:1005200083E090E09A838983000089819A818130F9
:10053000910519F0029759F017C080911201883087
:1005400080F4809112018F5F809312010AC0809124
:100550001201823040F0809112018150809312018B
:1005600002C0000001C0000089819A810F900F90A5
:10057000DF91CF910895CF93DF9300D0CDB7DEB751
:100580009A83898389819A81009719F0019731F0C4
:100590000AC081E090E09A83898308C081E090E0FE
:1005A0009A83898303C01A821982000089819A8103
:1005B000019709F01EC085E290E020913301222FBF
:1005C00030E022953295307F3227207F3227422F2C
:1005D00020913201222F30E0220F331F220F331FD0
:1005E000220F331F242B30913101232BFC01208358
:1005F000000089819A810F900F90DF91CF9108952B
:100600000F931F93CF93DF931F92CDB7DEB719825D
:10061000A6C08981282F30E0C901880F991F820F59
:10062000931F880F991F880F991F835C9E4FFC01B1
:1006300020813181428153818981682F70E0CB0113
:10064000880F991F860F971F880F991F880F991F72
:10065000875C9E4FFC0180819181A281B381281724
:1006600039074A075B0708F449C08981082F10E061
:100670008981282F30E0C901880F991F820F931FAD
:10068000880F991F880F991F8F5B9E4FFC01408137
:1006900051818981282F30E0C901880F991F820F6D
:1006A000931F880F991F880F991F895C9E4FFC012B
:1006B00080819181FA0109959C01C801880F991FD9
:1006C000800F911F880F991F880F991F895C9E4F7B
:1006D000FC01318320838981282F30E0C901880FF4
:1006E000991F820F931F880F991F880F991F835C92
:1006F0009E4FFC0110821182128213828981682F21
:1007000070E08981282F30E0C901880F991F820F7E
:10071000931F880F991F880F991F835C9E4FFC01C0
:1007200080819181A281B38121E030E040E050E0FE
:10073000280F391F4A1F5B1FCB01880F991F860F97
:10074000971F880F991F880F991F835C9E4FFC018C
:10075000208331834283538389818F5F8983898199
:10076000853008F456CF00000F90DF91CF911F9194
:100770000F9108951F920F9200905F000F92112425
:1007800000905B000F922F933F934F935F936F9373
:100790007F938F939F93AF93BF93EF93FF93CF93E9
:1007A000DF93CDB7DEB780912D0190912E01A091FE
:1007B0002F01B09130010197A109B10980932D015A
:1007C00090932E01A0932F01B093300180912D01C1
:1007D00090912E01A0912F01B0913001892B8A2B8D
:1007E0008B2B91F40E94000380910E0190910F01D8
:1007F000A0911001B091110180932D0190932E01D1
:10080000A0932F01B09330010000DF91CF91FF91B1
:10081000EF91BF91AF919F918F917F916F915F9178
:100820004F913F912F910F9000925B000F9000929B
:100830005F000F901F901895CF93DF931F92CDB755
:10084000DEB781E290E0FC01108282E290E02FEFBF
:10085000FC01208384E290E02FEFFC01208385E2FD
:1008600090E0FC01108287E290E02FEFFC012083F2
:1008700088E290E0FC01108219828981282F30E003
:10088000C901880F991F820F931F880F991F880F26
:10089000991F895C9E4FFC01118210828981682F0B
:1008A00070E02CE231E040E050E0CB01880F991F6E
:1008B000860F971F880F991F880F991F875C9E4F7F
:1008C000FC0120833183428353838981682F70E048
:1008D0008981282F30E0C901880F991F820F931F4B
:1008E000880F991F880F991F875C9E4FFC012081FC
:1008F000318142815381CB01880F991F860F971F49
:10090000880F991F880F991F835C9E4FFC012083DD
:100910003183428353838981282F30E0C901880FB6
:10092000991F820F931F880F991F880F991F8F5B44
:100930009E4F21E031E0FC013183208389818F5F6C
:1009400089838981282F30E0C901880F991F820F80
:10095000931F880F991F880F991F895C9E4FFC0178
:10096000118210828981682F70E028EE33E040E028
:1009700050E0CB01880F991F860F971F880F991F92
:10098000880F991F875C9E4FFC012083318342832F
:1009900053838981682F70E08981282F30E0C90155
:1009A000880F991F820F931F880F991F880F991F17
:1009B000875C9E4FFC012081318142815381CB01B4
:1009C000880F991F860F971F880F991F880F991FEF
:1009D000835C9E4FFC012083318342835383898152
:1009E000282F30E0C901880F991F820F931F880FAD
:1009F000991F880F991F8F5B9E4F26E531E0FC0100
:100A00003183208389818F5F89838981282F30E01A
:100A1000C901880F991F820F931F880F991F880F94
:100A2000991F895C9E4FFC01118210828981682F79
:100A300070E021E030E040E050E0CB01880F991FEA
:100A4000860F971F880F991F880F991F875C9E4FED
:100A5000FC0120833183428353838981682F70E0B6
:100A60008981282F30E0C901880F991F820F931FB9
:100A7000880F991F880F991F875C9E4FFC0120816A
:100A8000318142815381CB01880F991F860F971FB7
:100A9000880F991F880F991F835C9E4FFC0120834C
:100AA0003183428353838981282F30E0C901880F25
:100AB000991F820F931F880F991F880F991F8F5BB3
:100AC0009E4F2BE831E0FC013183208389818F5FC9
:100AD00089838981282F30E0C901880F991F820FEF
:100AE000931F880F991F880F991F895C9E4FFC01E7
:100AF000118210828981682F70E024E130E040E0AB
:100B000050E0CB01880F991F860F971F880F991F00
:100B1000880F991F875C9E4FFC012083318342839D
:100B200053838981682F70E08981282F30E0C901C3
:100B3000880F991F820F931F880F991F880F991F85
:100B4000875C9E4FFC012081318142815381CB0122
:100B5000880F991F860F971F880F991F880F991F5D
:100B6000835C9E4FFC0120833183428353838981C0
:100B7000282F30E0C901880F991F820F931F880F1B
:100B8000991F880F991F8F5B9E4F2AE332E0FC016B
:100B90003183208389818F5F89838981282F30E089
:100BA000C901880F991F820F931F880F991F880F03
:100BB000991F895C9E4FFC01118210828981682FE8
:100BC00070E021E030E040E050E0CB01880F991F59
:100BD000860F971F880F991F880F991F875C9E4F5C
:100BE000FC0120833183428353838981682F70E025
:100BF0008981282F30E0C901880F991F820F931F28
:100C0000880F991F880F991F875C9E4FFC012081D8
:100C1000318142815381CB01880F991F860F971F25
:100C2000880F991F880F991F835C9E4FFC012083BA
:100C30003183428353838981282F30E0C901880F93
:100C4000991F820F931F880F991F880F991F8F5B21
:100C50009E4F2BEB32E0FC013183208381E090E05A
:100C6000A0E0B0E0BC01CD010E9490000E94BE0057
:060C7000FFCFF894FFCF56
:100C76000000000200000000670000000000010004
:100C8600000001010000002C010000E80300000143
:0C0C96000000000100000014000000003D
:00000001FF
