:100000000C9446000C9465000C9465000C946500FB
:100010000C9465000C9465000C9465000C946500CC
:100020000C9465000C9465000C9465000C946500BC
:100030000C9465000C9439030C9465000C946500D5
:100040000C9465000C9465000C9465000C9465009C
:100050000C9465000C9465000C9465000C9465008C
:100060000C9465000C9465000C9465000C9465007C
:100070000C9465000C9465000C9465000C9465006C
:100080000C9465000C9465000C94650011241FBE4F
:10009000CFEFD0E4DEBFCDBF11E0A0E0B1E0ECEAED
:1000A000FAE000E00BBF02C007900D92A832B10742
:1000B000D9F721E0A8E2B1E001C01D92A936B2074C
:1000C000E1F70E949B030C9454050C940000CF931D
:1000D000DF9300D01F92CDB7DEB789837B836A831D
:1000E00089818A3031F48A819B81BC018DE00E9434
:1000F000670080EC90E0FC018081882F90E08072A6
:100100009927892BB1F386EC90E02981FC012083AB
:1001100080E090E00F900F900F90DF91CF910895C5
:10012000CF93DF9300D000D0CDB7DEB769837A8359
:100130008B839C8389819A81AB81BC8180930E01E2
:1001400090930F01A0931001B093110180910E01C3
:1001500090910F01A0911001B0911101809329019C
:1001600090932A01A0932B01B0932C0100000F90D3
:100170000F900F900F90DF91CF910895CF93DF9361
:10018000CDB7DEB781E890E02BE0FC01208388E862
:1001900090E02DE730E0FC01318320838FE690E092
:1001A00022E0FC01208384E890E0FC0111821082AF
:1001B00080910E0190910F01A0911001B091110159
:1001C0008093290190932A01A0932B01B0932C01D5
:1001D0008FE590E02FE530E0F90120812068FC01F7
:1001E00020830000DF91CF910895CF93DF93CDB7A7
:1001F000DEB781E890E0FC0110820000DF91CF9132
:100200000895CF93DF9300D0CDB7DEB79A8389836B
:1002100089819A818130910589F0823091051CF4A1
:10022000892B39F01AC08230910569F0039781F06B
:1002300014C081E090E09A83898311C082E090E04D
:100240009A8389830CC083E090E09A83898307C0F6
:1002500081E090E09A83898302C01A8219828981A1
:100260009A818130910579F0823091051CF4892BB7
:1002700039F015C08230910551F0039761F00FC03D
:1002800010922D010CC081E080932D0108C082E006
:1002900080932D0104C084E080932D0100008981AA
:1002A0009A810F900F90DF91CF910895CF93DF93B4
:1002B00000D0CDB7DEB79A83898389819A81009770
:1002C00019F0019731F00AC081E090E09A838983A8
:1002D00008C081E090E09A83898303C01A82198262
:1002E000000089819A81009719F0019721F00CC0D4
:1002F00010922E0109C090912E0181E0992309F0FE
:1003000080E080932E01000089819A810F900F90E8
:10031000DF91CF910895CF93DF9300D0CDB7DEB7B3
:100320009A83898389819A8181309105C1F08230D5
:10033000910509F444C0892B09F071C080E290E076
:10034000FC018081882F90E08470992721E0892B1F
:1003500009F020E0822F90E09A83898363C080E2D5
:1003600090E0FC018081882F90E084709927892B90
:1003700059F49091300180911201891728F081E0A1
:1003800090E09A8389831AC080E290E0FC0180812A
:10039000882F90E084709927892B69F4909130011F
:1003A00080911201891738F482E090E09A83898362
:1003B0001092300103C01A82198234C033C080E227
:1003C00090E0FC018081882F90E084709927892B30
:1003D00059F49091300180911201891728F082E040
:1003E00090E09A8389831AC080E290E0FC018081CA
:1003F000882F90E084709927892B69F490913001BF
:1004000080911201891738F481E090E09A83898302
:100410001092300103C01A82198204C003C01A82EC
:100420001982000089819A818130910559F08230CA
:10043000910589F0892B09F016C010922F011092B6
:10044000300111C081E080932F01809130018F5FD6
:100450008093300108C010922F01809130018F5F8E
:1004600080933001000089819A810F900F90DF9175
:10047000CF910895CF93DF9300D0CDB7DEB79A83A5
:10048000898389819A81009719F0019731F00AC018
:1004900081E090E09A83898308C081E090E09A83AC
:1004A000898303C01A821982000089819A81019789
:1004B00009F01EC085E290E020912F01222F30E04C
:1004C00022953295307F3227207F3227422F20918C
:1004D0002E01222F30E0220F331F220F331F220F55
:1004E000331F242B30912D01232BFC01208300008E
:1004F00089819A810F900F90DF91CF9108950F938A
:100500001F93CF93DF931F92CDB7DEB71982A6C09A
:100510008981282F30E0C901880F991F820F931F0E
:10052000880F991F880F991F875C9E4FFC012081BF
:100530003181428153818981682F70E0CB01880F1E
:10054000991F860F971F880F991F880F991F8B5C23
:100550009E4FFC0180819181A281B38128173907C8
:100560004A075B0708F449C08981082F10E0898198
:10057000282F30E0C901880F991F820F931F880F21
:10058000991F880F991F835C9E4FFC014081518108
:100590008981282F30E0C901880F991F820F931F8E
:1005A000880F991F880F991F8D5C9E4FFC018081D9
:1005B0009181FA0109959C01C801880F991F800F4C
:1005C000911F880F991F880F991F8D5C9E4FFC010A
:1005D000318320838981282F30E0C901880F991F3A
:1005E000820F931F880F991F880F991F875C9E4F5A
:1005F000FC0110821182128213828981682F70E0BF
:100600008981282F30E0C901880F991F820F931F1D
:10061000880F991F880F991F875C9E4FFC0180816E
:100620009181A281B38121E030E040E050E0280FC9
:10063000391F4A1F5B1FCB01880F991F860F971F19
:10064000880F991F880F991F875C9E4FFC0120839C
:1006500031834283538389818F5F89838981843089
:1006600008F456CF00000F90DF91CF911F910F91AA
:1006700008951F920F9200905F000F921124009036
:100680005B000F922F933F934F935F936F937F93F2
:100690008F939F93AF93BF93EF93FF93CF93DF938A
:1006A000CDB7DEB78091290190912A01A0912B014D
:1006B000B0912C010197A109B10980932901909370
:1006C0002A01A0932B01B0932C01809129019091D4
:1006D0002A01A0912B01B0912C01892B8A2B8B2B05
:1006E00091F40E947F0280910E0190910F01A091E0
:1006F0001001B09111018093290190932A01A093D8
:100700002B01B0932C010000DF91CF91FF91EF916D
:10071000BF91AF919F918F917F916F915F914F9119
:100720003F912F910F9000925B000F9000925F001D
:100730000F901F901895CF93DF931F92CDB7DEB720
:1007400081E290E0FC01108282E290E02FEFFC0158
:10075000208384E290E02FEFFC01208385E290E08B
:10076000FC01108287E290E02FEFFC01208388E2F9
:1007700090E0FC01108219828981282F30E0C901A4
:10078000880F991F820F931F880F991F880F991F39
:100790008D5C9E4FFC01118210828981682F70E070
:1007A0002CE231E040E050E0CB01880F991F860F2A
:1007B000971F880F991F880F991F8B5C9E4FFC0114
:1007C00020833183428353838981682F70E089813C
:1007D000282F30E0C901880F991F820F931F880FBF
:1007E000991F880F991F8B5C9E4FFC0120813181DE
:1007F00042815381CB01880F991F860F971F880F65
:10080000991F880F991F875C9E4FFC0120833183BD
:10081000428353838981282F30E0C901880F991FB3
:10082000820F931F880F991F880F991F835C9E4F1B
:1008300021E031E0FC013183208389818F5F89834E
:100840008981282F30E0C901880F991F820F931FDB
:10085000880F991F880F991F8D5C9E4FFC01118294
:1008600010828981682F70E028EE33E040E050E08C
:10087000CB01880F991F860F971F880F991F880F2C
:10088000991F8B5C9E4FFC012083318342835383ED
:100890008981682F70E08981282F30E0C901880F95
:1008A000991F820F931F880F991F880F991F8B5CC8
:1008B0009E4FFC012081318142815381CB01880F01
:1008C000991F860F971F880F991F880F991F875CA4
:1008D0009E4FFC0120833183428353838981282FDB
:1008E00030E0C901880F991F820F931F880F991F4D
:1008F000880F991F835C9E4F26E531E0FC01318310
:10090000208389818F5F89838981282F30E0C90105
:10091000880F991F820F931F880F991F880F991FA7
:100920008D5C9E4FFC01118210828981682F70E0DE
:1009300021E030E040E050E0CB01880F991F860FA6
:10094000971F880F991F880F991F8B5C9E4FFC0182
:1009500020833183428353838981682F70E08981AA
:10096000282F30E0C901880F991F820F931F880F2D
:10097000991F880F991F8B5C9E4FFC01208131814C
:1009800042815381CB01880F991F860F971F880FD3
:10099000991F880F991F875C9E4FFC01208331832C
:1009A000428353838981282F30E0C901880F991F22
:1009B000820F931F880F991F880F991F835C9E4F8A
:1009C0002BE831E0FC013183208389818F5F8983AB
:1009D0008981282F30E0C901880F991F820F931F4A
:1009E000880F991F880F991F8D5C9E4FFC01118203
:1009F00010828981682F70E021E030E040E050E013
:100A0000CB01880F991F860F971F880F991F880F9A
:100A1000991F8B5C9E4FFC0120833183428353835B
:100A20008981682F70E08981282F30E0C901880F03
:100A3000991F820F931F880F991F880F991F8B5C36
:100A40009E4FFC012081318142815381CB01880F6F
:100A5000991F860F971F880F991F880F991F875C12
:100A60009E4FFC0120833183428353838981282F49
:100A700030E0C901880F991F820F931F880F991FBB
:100A8000880F991F835C9E4F2AE332E0FC0131837B
:100A9000208381E090E0A0E0B0E0BC01CD010E94A5
:0C0AA00090000E94BE00FFCFF894FFCF32
:100AAC0000000002000000006700000000000100D0
:100ABC00000001010000002C010000E8030000010F
:080ACC00000000010000000021
:00000001FF
